:020000040800F2
:100000006807002039180008AD180008AF1800086C
:10001000B3180008B7180008BB180008000000005B
:10002000000000000000000000000000BF180008F1
:10003000C118000800000000C3180008C518000817
:1000400053180008531800085318000853190008E3
:1000500053180008531800085318000853180008D4
:1000600053180008531800085318000853180008C4
:1000700053180008531800085318000853180008B4
:1000800053180008531800085318000853180008A4
:100090005318000853180008531800085318000894
:1000A0005318000853180008531800085318000884
:1000B0005318000853180008531800085318000874
:1000C0005318000853180008531800085318000864
:1000D00053180008331D000853180008531800086F
:1000E00053180008671900085318000800F002F8B8
:1000F00000F041F80AA090E8000C82448344AAF181
:100100000107DA4501D100F036F8AFF2090EBAE87E
:100110000F0013F0010F18BFFB1A43F0010318473B
:10012000A81E0000C81E0000103A24BF78C878C17D
:10013000FAD8520724BF30C830C144BF04680C60ED
:10014000704700000023002400250026103A28BF35
:1001500078C1FBD8520728BF30C148BF0B60704739
:10016000632901F0AD86002070471FB501F018FF2C
:100170001FBD10B510BD01F0DDFE1146FFF7F5FF04
:1001800001F07AFB01F0FBFE03B4FFF7F2FF03BCC2
:1001900001F076FD00210020674A126842F48032A7
:1001A000654B1A6000BF644A126802F40030491CB3
:1001B00010B9B1F5A06FF6D15F4A126812F4003F92
:1001C00001D0012000E00020012842D15B4A1268E2
:1001D00042F01002594B1A601A46126822F00302CC
:1001E0001A601A46126842F002021A60524A5268B5
:1001F000514B5A601A4652685A601A46526842F485
:1002000080625A601A46526822F47C125A601A467A
:10021000526842F4E8125A601A46126842F080723C
:100220001A6000BF444A126812F0007FFAD0424AB6
:10023000526822F00302404B5A601A46526842F05C
:1002400002025A6000BF3C4A526802F00C02082ABF
:10025000F9D1704710B5FFF79DFF10BD10B53648B6
:10026000006840F00100344908600846406834499D
:1002700008403149486008460068324908402E4924
:1002800008600846006820F480200860084640683E
:1002900020F4FE0048604FF41F008860FFF7DAFF8B
:1002A0004FF000602849086010BD10B50021002003
:1002B0000022214B5B6803F00C0121B1042906D018
:1002C000082928D107E0214B214C236027E01F4B50
:1002D0001F4C236023E0184B5B6803F47010164B2F
:1002E0005B6803F48032022303EB904022B9194B80
:1002F0004343174C23600DE00F4B5B6813F4003F42
:1003000004D0144B4343124C236003E00F4B434390
:100310000F4C236003E00D4B0D4C236000BF00BF6A
:10032000054B5B68C3F303130B4CE15C084B1B6884
:10033000CB40074C236010BD00100240002002405B
:100340000000FFF8FFFFF6FE08ED00E000127A0063
:100350000000002000093D00040000203649014350
:10036000364A1160704770B5002100230F22C4780F
:100370004CB3324C246804F4E064C4F5E0644FEA02
:100380001421C1F1040322FA01F2447804FA03F1C2
:10039000847804EA020444EA01014FEA0111284C7E
:1003A0000678A155047804F01F054FF0010404FA03
:1003B00005F405784FEA65154FF0E02606EB850554
:1003C000C5F8004109E0047804F01F050124AC40A1
:1003D0001C4D0678761145F8264070BD1A4A0A4031
:1003E00002431A4B1A60704741B1194A126842EA37
:1003F00000024FF0E023C3F8102D07E0144A126802
:1004000022EA00024FF0E023C3F8102D70470428C1
:1004100008D14FF0E021096941F004014FF0E022DA
:10042000116107E04FF0E021096921F004014FF06C
:10043000E0221161704700000000FA050CED00E0B9
:1004400000E400E080E100E080FFFF1F08ED00E035
:1004500010ED00E010B5012000F0F5FE002000F0E6
:10046000F2FE10BD244908607047244908607047B7
:1004700023490860704701460020224A10884FF641
:100480007F4200EA020040EA01001F4AA2F82C0C59
:100490007047014600201B4A10884FF6807200EA20
:1004A000020040EA0100184AA2F82C0C7047002212
:1004B000144A2C3A02441160704701460022114A46
:1004C0002C3A0A441088704710480068C0B2704740
:1004D0000F48008840F001000B49A1F8340C704728
:1004E0000C480068C0B270470948008840F002001C
:1004F0000549A1F8340C704704860D4200860D4270
:1005000088860D422C6C004000600040A0860D42A1
:10051000346C0040A4860D4201460020FF4A10685A
:1005200000F03800084310607047FC49096821F06A
:100530000801FA4A116011460968014311607047C9
:10054000F649096821F01001F44A11601146096862
:10055000014311607047F248F0494860F148486033
:100560007047EF48ED494860EE4848607047EB48F7
:10057000006940F08000E94908617047E748006978
:1005800040F08000E549086170470420E349C968EC
:1005900001F00101012901D101200EE0DF49C96804
:1005A00011F0040F01D0022007E0DC49C96811F006
:1005B000100F01D0032000E00420704700B5024670
:1005C0000423FFF7E2FF034603E0FFF7DEFF0346E5
:1005D000521E012B01D1002AF7D102B9052318467A
:1005E00000BD30B5044604254FF43020FFF7E6FF88
:1005F0000546042D17D1C948006940F00200C749DB
:10060000086108464461006940F0400008614FF409
:100610003020FFF7D3FF0546C048006941F6FD7161
:100620000840BE490861284630BD10B504244FF487
:100630003020FFF7C3FF0446042C16D1B7480069E9
:1006400040F00400B54908610846006940F04000E8
:1006500008614FF43020FFF7B1FF0446AF4800694E
:1006600041F6FB710840AD490861204610BD00B558
:1006700002460423FFF789FF034603E0FFF785FFE7
:100680000346521E012B01D1002AF7D102B90523DE
:10069000184600BD10B504244FF43020FFF7E7FFE3
:1006A0000446042C16D19D48006940F004009B4983
:1006B00008610846006940F0400008614FF43020AE
:1006C000FFF7D5FF04469548006941F6FB710840E5
:1006D00092490861204610BD00209049C96911F077
:1006E000020F01D0012000E00020704730B5A525A1
:1006F0000424FFF7F1FF00B100254FF43020FFF78D
:100700005DFF0446042C3BD18548844988608548B8
:1007100088600846006940F02000086108460069CA
:1007200040F0400008614FF43020FFF747FF0446D7
:10073000042C1CD17948006941F6DF7108407749E3
:1007400008610846006940F010000861764805809D
:100750004FF40050FFF732FF0446052C10D06F48CD
:10076000006941F6EF7108406C49086108E0052C0A
:1007700006D06A48006941F6EF7108406749086190
:10078000204630BDF0B504460D4604260027F00291
:10079000FFF714FF0646042E22D16048006940F09E
:1007A00001005E4908612580F002FFF707FF064659
:1007B000042E0ED1A71C280C3880F002FFF7FEFE95
:1007C00006465648006941F6FE71084053490861E3
:1007D00006E05248006941F6FE7108404F49086141
:1007E0003046F0BD70B504460D460426F002FFF712
:1007F000E5FE0646042E11D14848006940F001008C
:10080000464908612580F002FFF7D8FE06464348B6
:10081000006941F6FE71084040490861304670BDEC
:1008200070B505460E460424E002FFF7C7FE0446F5
:10083000042C17D13A48394988603A4888600846FC
:10084000006940F0100008612E80E002FFF7B6FE5C
:100850000446052C06D03148006941F6EF71084086
:100860002E490861204670BD2DE9F04304464FF63D
:10087000FF763746B046B1460425E443E6B2C4F3FA
:100880000727C4F307484FEA1469E802FFF796FE0A
:100890000546042D3ED122482049886021488860C1
:1008A0000846006940F010000861FF2E06D01F487E
:1008B00006804FF40050FFF781FE0546042D08D155
:1008C000FF2F06D01A4807804FF40050FFF776FE3E
:1008D0000546042D09D1B8F1FF0F06D01548A0F840
:1008E0000C88E802FFF76AFE0546042D09D1B9F12C
:1008F000FF0F06D00F48A0F80E98E802FFF75EFE43
:100900000546052D06D00548006941F6EF710840FF
:10091000024908612846BDE8F0830000002002403B
:1009200023016745AB89EFCD00F8FF1F08F8FF1FD3
:100930000AF8FF1F00F0FF1F30B5054604244FF4EE
:100940003020FFF73BFE0446042C41D15F4860494C
:100950008860604888600846006940F020000861AF
:100960000846006940F0400008614FF43020FFF76E
:1009700025FE0446042C22D15548006941F6DF715A
:100980000840534908610846006940F010000861BA
:100990001DB100205049088002E0A5204E49088082
:1009A0004FF43020FFF70AFE0446052C10D04848CB
:1009B000006941F6EF7108404549086108E0052CDF
:1009C00006D04348006941F6DF710840404908619C
:1009D000204630BDF0B505460E46174604243B4878
:1009E0003B4988603B488860E002FFF7E7FD04462A
:1009F000042C19D13648006940F0100034490861D0
:100A000047F0F80030432843344908804FF4005041
:100A1000FFF7D4FD0446052C06D02D48006941F6A9
:100A2000EF7108402A4908612046F0BD2848C06996
:100A3000800870472648006A7047002024490968EA
:100A400011F0200F01D0012000E00020704729B1F3
:100A50001F4A126902431E4B1A6104E01C4A1269C4
:100A600082431B4B1A61704701460020012908D1BF
:100A7000174AD26912F0010F01D0012008E00020CE
:100A800006E0134AD2680A4201D0012000E00020AB
:100A900070470F49C860704704200D49C96801F0CC
:100AA0000101012901D101200EE00949C96811F0B5
:100AB000040F01D0022007E00549C96811F0100FAA
:100AC00001D0032000E004207047000023016745A7
:100AD00000200240AB89EFCD00F8FF1F02F8FF1F96
:100AE00010B50446CA48844208D10121042000F010
:100AF00090FB0021042000F08CFB46E0C5488442B6
:100B000008D10121082000F084FB0021082000F01A
:100B100080FB3AE0C048844208D10121102000F057
:100B200078FB0021102000F074FB2EE0BB488442CB
:100B300008D10121202000F06CFB0021202000F0D2
:100B400068FB22E0B648844208D10121402000F031
:100B500060FB0021402000F05CFB16E0B1488442BD
:100B600008D10121802000F054FB0021802000F0FA
:100B700050FB0AE0AC48844207D10121801500F007
:100B800048FB0021A01500F044FB10BD10B5012169
:100B9000084600F03EFB0021012000F03AFB10BDAA
:100BA0002DE9F04102460025002600200023002404
:100BB000002791F803C00CF00F0591F803C01CF05A
:100BC000100F03D091F802C04CEA0505B1F800C03F
:100BD0001CF0FF0F31D0146800202BE04FF0010C07
:100BE0000CFA00F3B1F800C00CEA03069E4220D1D3
:100BF00083004FF00F0C0CFA03F7BC4305FA03FC1B
:100C00004CEA040491F803C0BCF1280F06D14FF060
:100C1000010C0CFA00FCC2F814C00AE091F803C001
:100C2000BCF1480F05D14FF0010C0CFA00FCC2F8E2
:100C300010C0401C0828D1D31460B1F800C0BCF12A
:100C4000FF0F34DD546800202EE000F1080C4FF057
:100C5000010808FA0CF3B1F800C00CEA03069E4242
:100C600021D183004FF00F0C0CFA03F7BC4305FAB7
:100C700003FC4CEA040491F803C0BCF1280F05D131
:100C800000F1080C08FA0CF8C2F8148091F803C0BF
:100C9000BCF1480F07D100F1080C4FF0010808FA29
:100CA0000CF8C2F81080401C0828CED35460BDE870
:100CB000F0814FF6FF710180022181700421C17023
:100CC00070470246002093680B4201D0012000E0EB
:100CD000002070470146886880B2704702460020B5
:100CE000D3680B4201D0012000E00020704701468C
:100CF000C86880B2704701617047416170470AB1AE
:100D0000016100E041617047C16070474FF480327B
:100D10000A43826181618261826982697047024609
:100D20000020424B18684FF68073184040EA0210CA
:100D300008433E4B186070473D49C8617047F0B5A5
:100D40000A46002300240021002500F00046B6F1E9
:100D5000004F02D1354EF16901E0344E7168C0F3A5
:100D6000034583B200F44016B6F5401F08D121F0C8
:100D700070612E4E766826F070662C4F7E6012E011
:100D800000F48016B6F5801F06D1032606FA05F496
:100D9000A14341F0706106E0460D360103FA06F604
:100DA000B14341F0706122B1460D360103FA06F6F7
:100DB000314300F00046B6F1004F02D11B4EF16105
:100DC00001E01A4E7160F0BD30B500228B071C0F98
:100DD0000F2303FA04F2154B08338C1053F8243018
:100DE0009343124C08348D1044F8253023468C1060
:100DF00053F824308C07240F00FA04F423430B4CDF
:100E000008348D1044F8253030BD0A490860704719
:100E100000080140000C0140001001400014014096
:100E200000180140001C014000200140000001406A
:100E300000002042DC00204210B50121080700F02C
:100E4000F5F900214FF0805000F0F0F910BD2C4969
:100E5000086270472A490861704701460020294A04
:100E6000106820F0E00008431060704726490860D1
:100E7000704710B502460020224B186820F003008E
:100E800010431860214B1B6843F004034FF0E0242B
:100E9000C4F8103D012901D130BF00E020BF1B4B39
:100EA0001B6823F004034FF0E024C4F8103D10BD8C
:100EB0001448006840F004001249086008460068C1
:100EC00040F0020008601148006840F004004FF054
:100ED000E021C1F8100D00BF00BF30BF70470146D0
:100EE0000020084A52680A4201D0012000E0002098
:100EF00070470449096841EA8001024A116070475D
:100F000000000E4200700040A0000E4210ED00E014
:100F1000DB48006840F00100D94908600846406895
:100F2000D8490840D649486008460068D649084074
:100F3000D34908600846006820F48020086008460D
:100F4000406820F4FE0048604FF41F00886070473E
:100F5000CB49096821F48031C94A116011460968FA
:100F600021F480211160B0F5803F03D0B0F5802FCF
:100F70000ED106E0C249096841F48031C04A1160CF
:100F800007E0BF49096841F4A021BD4A116000E0B3
:100F900000BF00BF704710B50146002200230020AB
:100FA0004A11012A02D1B64C236806E0022A02D176
:100FB000B34C236A01E0B24C636A01F01F020124C2
:100FC00094401C4201D0012000E0002010BD70B50B
:100FD00000240025002600BF3120FFF7DCFF064675
:100FE000641CB4F5A06F01D0002EF5D03120FFF7BE
:100FF000D2FF08B1012500E00025284670BD01465A
:1010000000209F4A106820F0F80040EAC1001060FC
:1010100070479E490860704702460020984B586808
:1010200020F47C1042EA01031843954B5860704746
:1010300096490866704701460020914A506820F0A2
:1010400003000843506070478D48406800F00C0072
:101050007047014600208A4A506820F0F00008439B
:101060005060704701460020854A506820F4E060D7
:1010700008435060704701460020814A506820F4C0
:10108000605040EAC1005060704729B17C4A527AF2
:1010900002437B4B5A7206E0794A527AC343DBB271
:1010A0001A40774B5A727047794908607047014679
:1010B0000020734A506820F4404008435060704755
:1010C0000021744A11706E4A82F82010012802D063
:1010D000042808D103E001216E4A117004E00521C3
:1010E0006C4A117000E000BF00BF70476A49086099
:1010F00070476349096A0143614A11627047674951
:101100000860704730B500210022002400235C4DA8
:101110006D6805F00C0121B1042905D0082923D1FF
:1011200005E05F4D056022E05D4D05601FE0544D18
:101130006D6805F47012524D6D6805F48034022517
:1011400005EB92421CB9574D554305600BE04C4DE1
:101150006D6815F4003F03D0524D5543056002E021
:101160004F4D5543056002E04D4D056000BF00BF87
:10117000434D6D6805F0F00109094B4D6B5C056846
:10118000DD4045603E4D6D6805F4E061090A464D5D
:101190006B5C4568DD408560394D6D6805F46051D4
:1011A000C90A414D6B5C4568DD40C560344D6D68D2
:1011B00005F44041890B3D4D6B5CC568B5FBF3F50B
:1011C000056130BD29B12E4A526902432C4B5A6148
:1011D00004E02B4A52698243294B5A61704729B176
:1011E000274A92690243264B9A6104E0244A926995
:1011F0008243234B9A61704729B1214AD269024345
:101200001F4BDA6104E01E4AD26982431C4BDA614B
:10121000704729B11A4AD2680243194BDA6004E0D8
:10122000174AD2688243164BDA60704729B1144AD4
:1012300012690243124B1A6104E0114A1269824397
:101240000F4B1A6170471A49086070470F49C8640C
:1012500070470B49C87170470948406A40F0807078
:1012600007494862704701460020054A92680A42D1
:1012700001D0012000E000207047014988727047CA
:10128000001002400000FFF8FFFFF6FE000042429F
:10129000D800424220100240800442423C044242B4
:1012A00000127A0000093D001400002024000020F4
:1012B0004004424239B1554A128842EA0002544B76
:1012C000A3F8002809E0514A12886FEA00039BB294
:1012D00002EA03024E4BA3F8002870474D480088ED
:1012E00040F010004A49A1F80408704749480088B6
:1012F0004FF6EF7100EA01004549A1F80408704774
:101300000021454801884248B0F8180841EA0040E9
:10131000704700B50246FFF7E1FF100C3F49088017
:101320003B49A1F81C28FFF7E1FF00BD00B50246CC
:10133000FFF7D4FFC2F30340394908803449A1F8CC
:101340000C28FFF7D3FF00BD00B50246FFF7C6FF2C
:10135000100C344908802E49A1F82428FFF7C6FF55
:1013600000BD0020304909884FEA01714FEA113071
:101370002749B1F8141841EA0000704700BF25481A
:10138000008810F0200FFAD07047224800884FF6EE
:10139000F77100EA01001E49A1F8040800BF1D48CA
:1013A000008810F0080FFAD0704701460020194A53
:1013B00012880A4201D0012000E000207047154940
:1013C00009886FEA000292B201EA0201104AA2F80B
:1013D00004187047014600200E4A128802EA0102F2
:1013E000D0B20B4AB2F800280A4202D008B101205C
:1013F00000E000207047074909886FEA000292B2B6
:1014000001EA0201024AA2F80418704700280040CD
:1014100000200040042800401C28004018280040FC
:1014200008280040202800401028004010B504463D
:10143000FC48844209D101218803FFF7EAFE00211C
:101440004FF48040FFF7E5FE32E0F748844209D1CF
:1014500001214804FFF7EAFE00214FF40030FFF7B6
:10146000E5FE25E0F148844209D101218804FFF717
:10147000DDFE00214FF48020FFF7D8FE18E0EC4895
:10148000844209D10121C804FFF7D0FE00214FF4A6
:101490000020FFF7CBFE0BE0E648844208D1012193
:1014A0000805FFF7C3FE00214FF48010FFF7BEFED2
:1014B00010BD2DE9F04786B005460E460024A24631
:1014C00000BFA1460027B08900B100BF2F462C8A7B
:1014D0004CF6FF700440F08804432C82AC894EF631
:1014E000F3100440B08831890843718908430443EC
:1014F000AC81AC8A4FF6FF400440B0890443AC8213
:1015000001A8FFF7FFFDC748874202D1DDF810A010
:1015100001E0DDF80CA0A88910F4004F08D00AEB18
:10152000CA0000EB0A1031684900B0FBF1F807E08F
:101530000AEBCA0000EB0A1031688900B0FBF1F831
:101540006420B8FBF0F004012009642101FB10893C
:10155000A88910F4004F08D0322000EBC900B0FB7E
:10156000F1F000F00700044308E0322000EB09101E
:101570006421B0FBF1F000F00F0004432C8106B0B1
:10158000BDE8F0874FF41651016000218180C180D1
:1015900001810C21418100218181704710B50246F3
:1015A0000020108A4FF2FF0318400B884C88234319
:1015B0008C882343CC8823431843108210BD00211C
:1015C000018041808180C180704721B1828942F4CD
:1015D0000052828104E082894DF6FF731A408281B5
:1015E0007047F0B503460024002600250020A1F531
:1015F00010676A3F00D100BF1846C1F3421401F0E2
:101600001F06012707FA06F5012C01D10C3004E072
:10161000022C01D1103000E014301AB107682F43BA
:10162000076002E00768AF430760F0BD10B51AB16C
:10163000838A0B43838204E0838ACC43A4B2234091
:10164000838210BD028A4FF6F0731A400282028A2A
:101650000A430282704782894FF2FF731A408281E7
:1016600082890A438281704721B1828942F0020255
:10167000828104E082894FF6FD731A4082817047AF
:10168000028A4FF6DF731A400282028A0A430282FC
:10169000704721B1028A42F48042028204E0028A49
:1016A0004BF6FF731A4002827047C1F30802828032
:1016B000704701468888C0F308007047818941F06F
:1016C000010181817047028BD2B20283028B42EA10
:1016D000012202837047028B02F47F420283028B55
:1016E0000A430283704721B1828A42F0200282823B
:1016F00004E0828A4FF6DF731A408282704721B17C
:10170000828A42F01002828204E0828A4FF6EF73EE
:101710001A408282704721B1828A42F00802828296
:1017200004E0828A4FF6F7731A408282704721B133
:10173000828942F40042828103E08289C2F30E0270
:101740008281704721B1828A42F40062828204E081
:10175000828A4FF2FF731A4082827047828A4FF664
:10176000FB731A408282828A0A438282704721B1C7
:10177000828A42F00202828204E0828A4FF6FD737E
:101780001A408282704702460020B1F5007F00D1E6
:1017900000BF13880B4201D0012000E000207047F9
:1017A00001F40072B2F5007F00D100BFCA4302808D
:1017B000704770B502460024002300250020A1F5E3
:1017C00010666A3E00D100BFC1F3421501F01F034D
:1017D000012606FA03F3012D02D19689334006E073
:1017E000022D02D1168A334001E0968A33400C1252
:1017F000012606FA04F41688344013B10CB1012016
:1018000000E0002070BD10B500220023A1F5106497
:101810006A3C00D100BF0A1201249440A3B2DC4309
:10182000048010BD003801400044004000480040E2
:10183000004C0040005000400948804709480047DC
:10184000FEE7FEE7FEE7FEE7FEE7FEE7FEE7FEE770
:10185000FEE7FEE704480549054A064B70470000CD
:101860005D020008ED000008680100206807002004
:10187000680300206803002000F0CAF94FF4E1304B
:1018800000F00BFA0CE020210648FFF77CFF38B18E
:101890000448FFF70EFFC4B2214603A000F098FAF7
:1018A000F1E700000038014025630000704700BFE9
:1018B000FEE700BFFEE700BFFEE700BFFEE77047A0
:1018C000704770477047000010B501214FF0C050BD
:1018D000FFF792FC0120FFF7BAFAFEF7BBFD0120EB
:1018E000FFF7EEFB00BF4120FFF755FB0028FAD0C1
:1018F0004FF48070FFF7FDFB0120FFF700FCFFF7BE
:1019000044FDFFF73BFD47F6FF70FFF70FFDFFF7C4
:1019100035FD10BD10B50420FEF7CFFDA0F5254123
:10192000A53907D0FFF7D0FF4AF2A5510420FEF7F2
:10193000BEFD0DE07B20FFF72EFB10B97A20FFF7EC
:101940002AFBFFF789FC0120FFF7D9FBFFF71DFDFC
:1019500010BD10B50120FFF73DFD0120FFF74BFD45
:10196000FFF70CFD10BD10B50220FFF733FD02207C
:10197000FFF741FDFFF702FD10BD0146CA1701EB5D
:1019800092729210B1EB820212D1642091FBF0F2BC
:1019900000FB121050B94FF4C87091FBF0F200FB3D
:1019A000121008B9012070470020FCE70120FAE777
:1019B0000020F8E72DE9F05F06460F46904699466D
:1019C000DDE90AAB0024B6F5FA6F03DB40F633001D
:1019D000864202DD0120BDE8F09F40F2B2750AE0C8
:1019E0002846FFF7CAFF10B17948044401E079485E
:1019F0000444681C85B2B542F2DB781EC7B20025EC
:101A000010E07548405D40F2A321484304EBC01448
:101A10003046FFF7B2FF18B1012D01D16F480444E1
:101A2000681C85B2BD42ECDBA8F1010040F2A321A5
:101A3000484304EBC014C9EB4910C0EB092004EB88
:101A40000014CAEB0A1004EB80045C44FFF73CFF6F
:101A50004AF2A5510420FEF72AFD2046FFF759FC63
:101A6000FFF78CFC0020B6E7F0B503460C461546A0
:101A7000642093FBF0F0C6B2642093FBF0F700FB08
:101A80001730C1B2132E02DD01F16400C1B2084665
:101A9000CF1701EB977701EBA702072092FBF0F736
:101AA00000FB172082B25719601EDFF834C11CF802
:101AB0000000384482B2CF1701EB9777BF10B1EB2B
:101AC000870703D1032C01DA501E82B2072092FB54
:101AD000F0F700FB1720C0B2F0BD70B5002600245F
:101AE0000025FFF70DFC06463C48B6FBF0F43D48E8
:101AF0000088A0423DD03B490C8040F2B27510E016
:101B00002846FFF73AFF40B1B4F5B77F02D3A4F5FA
:101B1000B77404E0681C85B206E0A4F26D14681C7A
:101B200085B2B4F5B67FEBD800BF2F4805800025FD
:101B300016E02D480088FFF720FF30B1012D04D1B9
:101B40001D2C01D31D3C09E00CE02348405DA04260
:101B500003D82148405D241A00E003E0681C85B2E8
:101B60001C2CE6D200BF681C20490870601C20496C
:101B700008701A48B6FBF0F100FB11644FF4616085
:101B8000B4FBF0F01B4908704FF46160B4FBF0F156
:101B900000FB11403C21B0FBF1F0174908704FF4F5
:101BA0006160B4FBF0F100FB11403C21B0FBF1F2AD
:101BB00001FB1200114908700D4802780B480178AA
:101BC00009480088FFF750FF0D490870002070BDDC
:101BD0000085E2018033E101BA1F00088051010055
:101BE000AE1F0008280000202A0000202C00002042
:101BF0002D0000202E0000202F00002030000020AB
:101C00003100002010B54FF4A060FEF7A7FB10BD17
:101C100010B5FFF77DF94FF48030FFF799F9FFF722
:101C2000D6F90446012C24D14FF4E0110004FFF74B
:101C3000F3F90020FFF70DFAA002FFF713FA0020D6
:101C4000FFF719FA0220FEF767FC1020FEF778FC78
:101C50000120FFF7EDF900BF3920FFF79CF90028BC
:101C6000FAD00220FFF7E7F900BFFFF7EDF90828E7
:101C7000FBD1012144F27C00FFF7B1FA10BD000056
:101C8000014600BF704700BF4A4A128812F0400F59
:101C9000FAD0C2B2484B1A80704710B586B00446DD
:101CA000012144F20400FFF79AFA4FF40070ADF8F6
:101CB000140003208DF8160018208DF8170005A9D0
:101CC0003E48FEF76DFF4FF48060ADF8140004202D
:101CD0008DF8170005A93948FEF762FF25208DF819
:101CE000000003208DF801008DF8020001208DF81E
:101CF00003006846FEF737FB01940020ADF80800AA
:101D0000ADF80A00ADF80C00ADF810000C20ADF8ED
:101D10000E0001A92748FFF7CCFB002240F2255115
:101D20002448FFF75EFC01212248FFF74EFC06B075
:101D300010BD10B540F225511E48FFF73AFD30B3F3
:101D40001C48FFF7B6FCC4B221461DA000F040F8C5
:101D50001C48008810F4004F2BD11A48008810F45A
:101D6000804F0CD00A2C03D000201649088020E0B8
:101D70001448008840F400401249088019E00D2CF6
:101D800006D11048008840F480400E49088010E0D9
:101D90000C480088C0F30D000B490C54094800881A
:101DA000401C0849088008460088C72801DD00203B
:101DB000088010BD0038014004380140000801408F
:101DC00025630000340000203C0000207047000024
:101DD0000FB4044910B503AA029800F07DF810BCB6
:101DE0005DF814FB380000202DE9F04104460E4652
:101DF00000200AE0E1682046884738B3252806D04D
:101E0000D4E901219047206A401C2062F2E7E16892
:101E1000204600278847050018D0A5F14100192861
:101E200002D820354FF40067324629462046276005
:101E3000FEF796F940B1012804D0F61D26F00706FA
:101E40000836D7E7361DD5E72846D9E7206ABDE82A
:101E5000F08170B505460C46012A05D02868800639
:101E600000D5EA69002302E0012305E05B1C9342F0
:101E700002D2E05C0028F9D1A869E618C01AA8616E
:101E8000286A184428622846AFF3008004E0D5E9A8
:101E9000012114F8010B9047B442F8D32846AFF360
:101EA000008070BD704770477047704710B5436938
:101EB00013B1AFF3008001E0FFF7CBFF012010BDAD
:101EC000126800F124010A7000224A700122EDE735
:101ED00011684FF0FF32E9E7074B70B50C467B44C1
:101EE00000F011F80546204600F020F810B14FF040
:101EF000FF3070BD284670BDA5FDFFFF01694A1C7B
:101F000002610878704700B58FB0CDE9013100213A
:101F1000059105497944CDE9031011466846FFF75C
:101F200063FF0FB000BD0000E5FFFFFFC06800F0D9
:101F300080007047754600F029F8AE4605006946F6
:101F4000534620F00700854618B020B5FFF782FC05
:101F5000BDE820404FF000064FF000074FF00008AA
:101F60004FF0000B21F00701AC46ACE8C009ACE82B
:101F7000C009ACE8C009ACE8C0098D46704704460A
:101F8000AFF300802046FEF7FFF8000000487047DE
:101F90000401002001487047704700BF080100207D
:101FA00010B5FFF7F7FF4FF00001016010BD00030F
:101FB000030601040602050003051F1C1F1E1F1E49
:101FC0001F1F1E1F1E1F0000E81F0008000000202A
:101FD0003C00000028010008242000083C000020EC
:101FE0002C0700004401000800A24A040000000081
:101FF00000000000010203040607080900000000B9
:10200000010203040102030406070809020406088A
:1020100000000000000000000000000000000000C0
:0420200000000000BC
:04000005080000ED02
:00000001FF
